{
  "_format": "hh-sol-artifact-1",
  "contractName": "DeFiSentinel",
  "sourceName": "contracts/DeFiSentinel.sol",
  "abi": [
    {
      "anonymous": false,
      "inputs": [
        {
          "indexed": true,
          "internalType": "address",
          "name": "protocol",
          "type": "address"
        },
        {
          "indexed": true,
          "internalType": "address",
          "name": "caller",
          "type": "address"
        },
        {
          "indexed": false,
          "internalType": "string",
          "name": "alertType",
          "type": "string"
        },
        {
          "indexed": false,
          "internalType": "uint256",
          "name": "riskScore",
          "type": "uint256"
        },
        {
          "indexed": false,
          "internalType": "uint256",
          "name": "timestamp",
          "type": "uint256"
        }
      ],
      "name": "AlertRaised",
      "type": "event"
    },
    {
      "anonymous": false,
      "inputs": [
        {
          "indexed": true,
          "internalType": "address",
          "name": "protocol",
          "type": "address"
        },
        {
          "indexed": false,
          "internalType": "string",
          "name": "anomalyType",
          "type": "string"
        },
        {
          "indexed": false,
          "internalType": "uint256",
          "name": "severity",
          "type": "uint256"
        }
      ],
      "name": "AnomalyDetected",
      "type": "event"
    },
    {
      "anonymous": false,
      "inputs": [
        {
          "indexed": true,
          "internalType": "uint256",
          "name": "anomalyId",
          "type": "uint256"
        }
      ],
      "name": "AnomalyResolved",
      "type": "event"
    },
    {
      "anonymous": false,
      "inputs": [
        {
          "indexed": true,
          "internalType": "address",
          "name": "previousOwner",
          "type": "address"
        },
        {
          "indexed": true,
          "internalType": "address",
          "name": "newOwner",
          "type": "address"
        }
      ],
      "name": "OwnershipTransferred",
      "type": "event"
    },
    {
      "anonymous": false,
      "inputs": [
        {
          "indexed": true,
          "internalType": "address",
          "name": "protocol",
          "type": "address"
        },
        {
          "indexed": false,
          "internalType": "string",
          "name": "name",
          "type": "string"
        },
        {
          "indexed": false,
          "internalType": "uint256",
          "name": "timestamp",
          "type": "uint256"
        }
      ],
      "name": "ProtocolRegistered",
      "type": "event"
    },
    {
      "anonymous": false,
      "inputs": [
        {
          "indexed": true,
          "internalType": "address",
          "name": "user",
          "type": "address"
        },
        {
          "indexed": true,
          "internalType": "address",
          "name": "protocol",
          "type": "address"
        }
      ],
      "name": "UserExposureRecorded",
      "type": "event"
    },
    {
      "inputs": [],
      "name": "RISK_THRESHOLD",
      "outputs": [
        {
          "internalType": "uint256",
          "name": "",
          "type": "uint256"
        }
      ],
      "stateMutability": "view",
      "type": "function"
    },
    {
      "inputs": [
        {
          "internalType": "uint256",
          "name": "",
          "type": "uint256"
        }
      ],
      "name": "anomalies",
      "outputs": [
        {
          "internalType": "address",
          "name": "protocol",
          "type": "address"
        },
        {
          "internalType": "string",
          "name": "anomalyType",
          "type": "string"
        },
        {
          "internalType": "string",
          "name": "description",
          "type": "string"
        },
        {
          "internalType": "uint256",
          "name": "severity",
          "type": "uint256"
        },
        {
          "internalType": "uint256",
          "name": "timestamp",
          "type": "uint256"
        },
        {
          "internalType": "bool",
          "name": "resolved",
          "type": "bool"
        }
      ],
      "stateMutability": "view",
      "type": "function"
    },
    {
      "inputs": [
        {
          "internalType": "address",
          "name": "_user",
          "type": "address"
        }
      ],
      "name": "calculateUserRiskScore",
      "outputs": [
        {
          "internalType": "uint256",
          "name": "",
          "type": "uint256"
        }
      ],
      "stateMutability": "view",
      "type": "function"
    },
    {
      "inputs": [],
      "name": "getAllProtocols",
      "outputs": [
        {
          "internalType": "address[]",
          "name": "",
          "type": "address[]"
        }
      ],
      "stateMutability": "view",
      "type": "function"
    },
    {
      "inputs": [],
      "name": "getAnomalyCount",
      "outputs": [
        {
          "internalType": "uint256",
          "name": "",
          "type": "uint256"
        }
      ],
      "stateMutability": "view",
      "type": "function"
    },
    {
      "inputs": [
        {
          "internalType": "address",
          "name": "_protocol",
          "type": "address"
        }
      ],
      "name": "getProtocolDetails",
      "outputs": [
        {
          "internalType": "string",
          "name": "name",
          "type": "string"
        },
        {
          "internalType": "bool",
          "name": "isActive",
          "type": "bool"
        },
        {
          "internalType": "uint256",
          "name": "riskScore",
          "type": "uint256"
        },
        {
          "internalType": "uint256",
          "name": "lastUpdateTime",
          "type": "uint256"
        }
      ],
      "stateMutability": "view",
      "type": "function"
    },
    {
      "inputs": [
        {
          "internalType": "address",
          "name": "_user",
          "type": "address"
        }
      ],
      "name": "getUserExposures",
      "outputs": [
        {
          "internalType": "address[]",
          "name": "",
          "type": "address[]"
        }
      ],
      "stateMutability": "view",
      "type": "function"
    },
    {
      "inputs": [],
      "name": "owner",
      "outputs": [
        {
          "internalType": "address",
          "name": "",
          "type": "address"
        }
      ],
      "stateMutability": "view",
      "type": "function"
    },
    {
      "inputs": [
        {
          "internalType": "address",
          "name": "",
          "type": "address"
        }
      ],
      "name": "protocols",
      "outputs": [
        {
          "internalType": "address",
          "name": "contractAddress",
          "type": "address"
        },
        {
          "internalType": "string",
          "name": "name",
          "type": "string"
        },
        {
          "internalType": "uint256",
          "name": "riskScore",
          "type": "uint256"
        },
        {
          "internalType": "bool",
          "name": "isActive",
          "type": "bool"
        },
        {
          "internalType": "uint256",
          "name": "lastUpdateTime",
          "type": "uint256"
        }
      ],
      "stateMutability": "view",
      "type": "function"
    },
    {
      "inputs": [
        {
          "internalType": "address",
          "name": "_protocol",
          "type": "address"
        },
        {
          "internalType": "string",
          "name": "_anomalyType",
          "type": "string"
        },
        {
          "internalType": "string",
          "name": "_description",
          "type": "string"
        },
        {
          "internalType": "uint256",
          "name": "_severity",
          "type": "uint256"
        }
      ],
      "name": "recordAnomaly",
      "outputs": [],
      "stateMutability": "nonpayable",
      "type": "function"
    },
    {
      "inputs": [
        {
          "internalType": "address",
          "name": "_user",
          "type": "address"
        },
        {
          "internalType": "address",
          "name": "_protocol",
          "type": "address"
        }
      ],
      "name": "recordUserExposure",
      "outputs": [],
      "stateMutability": "nonpayable",
      "type": "function"
    },
    {
      "inputs": [
        {
          "internalType": "address",
          "name": "_protocol",
          "type": "address"
        },
        {
          "internalType": "string",
          "name": "_name",
          "type": "string"
        },
        {
          "internalType": "uint256",
          "name": "_initialRiskScore",
          "type": "uint256"
        }
      ],
      "name": "registerProtocol",
      "outputs": [],
      "stateMutability": "nonpayable",
      "type": "function"
    },
    {
      "inputs": [
        {
          "internalType": "uint256",
          "name": "",
          "type": "uint256"
        }
      ],
      "name": "registeredProtocols",
      "outputs": [
        {
          "internalType": "address",
          "name": "",
          "type": "address"
        }
      ],
      "stateMutability": "view",
      "type": "function"
    },
    {
      "inputs": [],
      "name": "renounceOwnership",
      "outputs": [],
      "stateMutability": "nonpayable",
      "type": "function"
    },
    {
      "inputs": [
        {
          "internalType": "uint256",
          "name": "_anomalyId",
          "type": "uint256"
        }
      ],
      "name": "resolveAnomaly",
      "outputs": [],
      "stateMutability": "nonpayable",
      "type": "function"
    },
    {
      "inputs": [
        {
          "internalType": "address",
          "name": "newOwner",
          "type": "address"
        }
      ],
      "name": "transferOwnership",
      "outputs": [],
      "stateMutability": "nonpayable",
      "type": "function"
    },
    {
      "inputs": [
        {
          "internalType": "address",
          "name": "_protocol",
          "type": "address"
        },
        {
          "internalType": "uint256",
          "name": "_riskScore",
          "type": "uint256"
        }
      ],
      "name": "updateRiskScore",
      "outputs": [],
      "stateMutability": "nonpayable",
      "type": "function"
    },
    {
      "inputs": [
        {
          "internalType": "address",
          "name": "",
          "type": "address"
        },
        {
          "internalType": "uint256",
          "name": "",
          "type": "uint256"
        }
      ],
      "name": "userExposures",
      "outputs": [
        {
          "internalType": "address",
          "name": "",
          "type": "address"
        }
      ],
      "stateMutability": "view",
      "type": "function"
    }
  ],
  "bytecode": "0x608060405234801561001057600080fd5b5061001a33610023565b60018055610073565b600080546001600160a01b038381166001600160a01b0319831681178455604051919092169283917f8be0079c531659141344cd1fd0a4f28419497f9722a3daafe3b4186f6b6457e09190a35050565b6116ab806100826000396000f3fe608060405234801561001057600080fd5b50600436106101165760003560e01c80638796166b116100a25780639ff1192d116100715780639ff1192d14610251578063c06fbccc14610264578063da06ca6d14610277578063f2fde38b1461028a578063ff5feb0c1461029d57600080fd5b80638796166b146102025780638da5cb5b146102255780639ac22804146102365780639e74464a1461023e57600080fd5b80631aa6730f116100e95780631aa6730f1461019357806326638a0a146101b85780634767bc9f146101dc578063715018a6146101f2578063741c53eb146101fa57600080fd5b806303d68f3d1461011b5780630579b3231461014b5780630b5258491461016b5780630e045cd814610180575b600080fd5b61012e6101293660046110f6565b6102b0565b6040516001600160a01b0390911681526020015b60405180910390f35b61015e610159366004611120565b6102e8565b6040516101429190611142565b61017e610179366004611232565b61035e565b005b61017e61018e3660046112ae565b610547565b6101a66101a1366004611305565b61073a565b60405161014296959493929190611364565b6101cb6101c6366004611120565b6108a1565b6040516101429594939291906113bb565b6101e4604681565b604051908152602001610142565b61017e610968565b61015e61097c565b610215610210366004611120565b6109de565b60405161014294939291906113fc565b6000546001600160a01b031661012e565b6004546101e4565b61017e61024c366004611305565b610af8565b61017e61025f3660046110f6565b610c20565b61017e61027236600461142b565b610d55565b61012e610285366004611305565b610e8a565b61017e610298366004611120565b610eb4565b6101e46102ab366004611120565b610f2d565b600560205281600052604060002081815481106102cc57600080fd5b6000918252602090912001546001600160a01b03169150829050565b6001600160a01b03811660009081526005602090815260409182902080548351818402810184019094528084526060939283018282801561035257602002820191906000526020600020905b81546001600160a01b03168152600190910190602001808311610334575b50505050509050919050565b610366611030565b6001600160a01b03841660009081526002602052604090206003015460ff166103aa5760405162461bcd60e51b81526004016103a19061145e565b60405180910390fd5b600181101580156103bc575060058111155b6103ff5760405162461bcd60e51b81526020600482015260146024820152735365766572697479206d75737420626520312d3560601b60448201526064016103a1565b6040805160c0810182526001600160a01b0386811682526020820186815292820185905260608201849052426080830152600060a0830181905260048054600181018255915282517f8a35acfbc15ff81a39ae7d344fd709f28e8600b4aa8c65c6b64bfe7fe36bd19b600690920291820180546001600160a01b031916919093161782559251919290917f8a35acfbc15ff81a39ae7d344fd709f28e8600b4aa8c65c6b64bfe7fe36bd19c909101906104b89082611513565b50604082015160028201906104cd9082611513565b50606082015160038201556080820151600482015560a0909101516005909101805460ff19169115159190911790556040516001600160a01b038516907fe0946ce74d866f914f1b6a744b1af13f38b39051e9cc7210984cbb7b3c8fe6079061053990869085906115d3565b60405180910390a250505050565b61054f611030565b6001600160a01b03831660009081526002602052604090206003015460ff16156105bb5760405162461bcd60e51b815260206004820152601b60248201527f50726f746f636f6c20616c72656164792072656769737465726564000000000060448201526064016103a1565b606481111561060c5760405162461bcd60e51b815260206004820152601860248201527f5269736b2073636f7265206d75737420626520302d313030000000000000000060448201526064016103a1565b6040805160a0810182526001600160a01b0385811680835260208084018781528486018790526001606086018190524260808701526000938452600290925294909120835181546001600160a01b0319169316929092178255925191929091908201906106799082611513565b50604082810151600283015560608301516003808401805460ff19169215159290921790915560809093015160049092019190915581546001810183556000929092527fc2575a0e9e593c00f959f8c92f12db2869c3395a3b0502d05e2516446f71f85b90910180546001600160a01b0319166001600160a01b03861690811790915590517fb2d8bd77017327b376bed2dfec7b8d35a801a756e2b14c3f2dd8e933344e2c479061072d90859042906115d3565b60405180910390a2505050565b6004818154811061074a57600080fd5b6000918252602090912060069091020180546001820180546001600160a01b039092169350906107799061148b565b80601f01602080910402602001604051908101604052809291908181526020018280546107a59061148b565b80156107f25780601f106107c7576101008083540402835291602001916107f2565b820191906000526020600020905b8154815290600101906020018083116107d557829003601f168201915b5050505050908060020180546108079061148b565b80601f01602080910402602001604051908101604052809291908181526020018280546108339061148b565b80156108805780601f1061085557610100808354040283529160200191610880565b820191906000526020600020905b81548152906001019060200180831161086357829003601f168201915b50505050600383015460048401546005909401549293909290915060ff1686565b600260205260009081526040902080546001820180546001600160a01b0390921692916108cd9061148b565b80601f01602080910402602001604051908101604052809291908181526020018280546108f99061148b565b80156109465780601f1061091b57610100808354040283529160200191610946565b820191906000526020600020905b81548152906001019060200180831161092957829003601f168201915b50505050600283015460038401546004909401549293909260ff909116915085565b610970611030565b61097a600061108a565b565b606060038054806020026020016040519081016040528092919081815260200182805480156109d457602002820191906000526020600020905b81546001600160a01b031681526001909101906020018083116109b6575b5050505050905090565b6001600160a01b038082166000908152600260209081526040808320815160a0810190925280549094168152600184018054606095859485948594909391840191610a289061148b565b80601f0160208091040260200160405190810160405280929190818152602001828054610a549061148b565b8015610aa15780601f10610a7657610100808354040283529160200191610aa1565b820191906000526020600020905b815481529060010190602001808311610a8457829003601f168201915b50505091835250506002820154602080830191909152600383015460ff1615156040808401919091526004909301546060928301528301519083015191830151608090930151909991985091965090945092505050565b610b00611030565b6004548110610b465760405162461bcd60e51b8152602060048201526012602482015271125b9d985b1a5908185b9bdb585b1e48125160721b60448201526064016103a1565b60048181548110610b5957610b596115f5565b600091825260209091206005600690920201015460ff1615610bbd5760405162461bcd60e51b815260206004820152601860248201527f416e6f6d616c7920616c7265616479207265736f6c766564000000000000000060448201526064016103a1565b600160048281548110610bd257610bd26115f5565b60009182526020822060069190910201600501805460ff19169215159290921790915560405182917fa30ab21948c86d9b86caa7049c43f3f36adfca53b91c7971f469efac4b035bbf91a250565b610c28611030565b6001600160a01b03821660009081526002602052604090206003015460ff16610c635760405162461bcd60e51b81526004016103a19061145e565b6064811115610cb45760405162461bcd60e51b815260206004820152601960248201527f5269736b2073636f7265206d757374206265203c3d203130300000000000000060448201526064016103a1565b6001600160a01b03821660009081526002602081905260409091209081018290554260049091015560468110610d5157604080516060808252600f908201526e484947485f5249534b5f53434f524560881b6080820152602081018390524281830152905133916001600160a01b038516917fed82a3d06e5fbd7de6b20adde62343de2da8ab48d9fbf64b025921565726a5d29181900360a00190a35b5050565b6001600160a01b03811660009081526002602052604090206003015460ff16610d905760405162461bcd60e51b81526004016103a19061145e565b6000805b6001600160a01b038416600090815260056020526040902054811015610e18576001600160a01b03848116600090815260056020526040902080549185169183908110610de357610de36115f5565b6000918252602090912001546001600160a01b031603610e065760019150610e18565b80610e1081611621565b915050610d94565b5080610e85576001600160a01b038381166000818152600560209081526040808320805460018101825590845291832090910180546001600160a01b0319169487169485179055517f550dbe402c1d1396b604facfed8b3b3bd78b1a708e4142e829aea20e93a02e249190a35b505050565b60038181548110610e9a57600080fd5b6000918252602090912001546001600160a01b0316905081565b610ebc611030565b6001600160a01b038116610f215760405162461bcd60e51b815260206004820152602660248201527f4f776e61626c653a206e6577206f776e657220697320746865207a65726f206160448201526564647265737360d01b60648201526084016103a1565b610f2a8161108a565b50565b6001600160a01b038116600090815260056020908152604080832080548251818502810185019093528083528493830182828015610f9457602002820191906000526020600020905b81546001600160a01b03168152600190910190602001808311610f76575b505050505090508051600003610fad5750600092915050565b6000805b825181101561101b5760026000848381518110610fd057610fd06115f5565b60200260200101516001600160a01b03166001600160a01b031681526020019081526020016000206002015482611007919061163a565b91508061101381611621565b915050610fb1565b5081516110289082611653565b949350505050565b6000546001600160a01b0316331461097a5760405162461bcd60e51b815260206004820181905260248201527f4f776e61626c653a2063616c6c6572206973206e6f7420746865206f776e657260448201526064016103a1565b600080546001600160a01b038381166001600160a01b0319831681178455604051919092169283917f8be0079c531659141344cd1fd0a4f28419497f9722a3daafe3b4186f6b6457e09190a35050565b80356001600160a01b03811681146110f157600080fd5b919050565b6000806040838503121561110957600080fd5b611112836110da565b946020939093013593505050565b60006020828403121561113257600080fd5b61113b826110da565b9392505050565b6020808252825182820181905260009190848201906040850190845b818110156111835783516001600160a01b03168352928401929184019160010161115e565b50909695505050505050565b634e487b7160e01b600052604160045260246000fd5b600082601f8301126111b657600080fd5b813567ffffffffffffffff808211156111d1576111d161118f565b604051601f8301601f19908116603f011681019082821181831017156111f9576111f961118f565b8160405283815286602085880101111561121257600080fd5b836020870160208301376000602085830101528094505050505092915050565b6000806000806080858703121561124857600080fd5b611251856110da565b9350602085013567ffffffffffffffff8082111561126e57600080fd5b61127a888389016111a5565b9450604087013591508082111561129057600080fd5b5061129d878288016111a5565b949793965093946060013593505050565b6000806000606084860312156112c357600080fd5b6112cc846110da565b9250602084013567ffffffffffffffff8111156112e857600080fd5b6112f4868287016111a5565b925050604084013590509250925092565b60006020828403121561131757600080fd5b5035919050565b6000815180845260005b8181101561134457602081850181015186830182015201611328565b506000602082860101526020601f19601f83011685010191505092915050565b6001600160a01b038716815260c0602082018190526000906113889083018861131e565b828103604084015261139a818861131e565b606084019690965250506080810192909252151560a0909101529392505050565b6001600160a01b038616815260a0602082018190526000906113df9083018761131e565b604083019590955250911515606083015260809091015292915050565b60808152600061140f608083018761131e565b9415156020830152506040810192909252606090910152919050565b6000806040838503121561143e57600080fd5b611447836110da565b9150611455602084016110da565b90509250929050565b60208082526013908201527250726f746f636f6c206e6f742061637469766560681b604082015260600190565b600181811c9082168061149f57607f821691505b6020821081036114bf57634e487b7160e01b600052602260045260246000fd5b50919050565b601f821115610e8557600081815260208120601f850160051c810160208610156114ec5750805b601f850160051c820191505b8181101561150b578281556001016114f8565b505050505050565b815167ffffffffffffffff81111561152d5761152d61118f565b6115418161153b845461148b565b846114c5565b602080601f831160018114611576576000841561155e5750858301515b600019600386901b1c1916600185901b17855561150b565b600085815260208120601f198616915b828110156115a557888601518255948401946001909101908401611586565b50858210156115c35787850151600019600388901b60f8161c191681555b5050505050600190811b01905550565b6040815260006115e6604083018561131e565b90508260208301529392505050565b634e487b7160e01b600052603260045260246000fd5b634e487b7160e01b600052601160045260246000fd5b6000600182016116335761163361160b565b5060010190565b8082018082111561164d5761164d61160b565b92915050565b60008261167057634e487b7160e01b600052601260045260246000fd5b50049056fea2646970667358221220d49b56cb499bf7144cd19f47499cc3e3a3b1169486ffc8b29f7a68b66020816364736f6c63430008110033",
  "linkReferences": {},
  "deployedLinkReferences": {}
}